{
  "contractName": "VerificationSmartContract",
  "abi": [
    {
      "inputs": [],
      "stateMutability": "nonpayable",
      "type": "constructor"
    },
    {
      "anonymous": false,
      "inputs": [
        {
          "indexed": true,
          "internalType": "string",
          "name": "data",
          "type": "string"
        },
        {
          "indexed": true,
          "internalType": "address",
          "name": "addedBy",
          "type": "address"
        },
        {
          "indexed": false,
          "internalType": "uint256",
          "name": "timestamp",
          "type": "uint256"
        }
      ],
      "name": "MetadataAdded",
      "type": "event"
    },
    {
      "inputs": [],
      "name": "admin",
      "outputs": [
        {
          "internalType": "address",
          "name": "",
          "type": "address"
        }
      ],
      "stateMutability": "view",
      "type": "function",
      "constant": true
    },
    {
      "inputs": [
        {
          "internalType": "string",
          "name": "data",
          "type": "string"
        }
      ],
      "name": "addMetadata",
      "outputs": [],
      "stateMutability": "nonpayable",
      "type": "function"
    },
    {
      "inputs": [
        {
          "internalType": "string",
          "name": "data",
          "type": "string"
        }
      ],
      "name": "verifyMetadata",
      "outputs": [
        {
          "internalType": "bool",
          "name": "",
          "type": "bool"
        },
        {
          "internalType": "address",
          "name": "",
          "type": "address"
        },
        {
          "internalType": "uint256",
          "name": "",
          "type": "uint256"
        }
      ],
      "stateMutability": "view",
      "type": "function",
      "constant": true
    },
    {
      "inputs": [],
      "name": "getURLCount",
      "outputs": [
        {
          "internalType": "uint256",
          "name": "",
          "type": "uint256"
        }
      ],
      "stateMutability": "view",
      "type": "function",
      "constant": true
    },
    {
      "inputs": [],
      "name": "getIPFSHashCount",
      "outputs": [
        {
          "internalType": "uint256",
          "name": "",
          "type": "uint256"
        }
      ],
      "stateMutability": "view",
      "type": "function",
      "constant": true
    }
  ],
  "bytecode": "0x608060405234801561001057600080fd5b5033600360006101000a81548173ffffffffffffffffffffffffffffffffffffffff021916908373ffffffffffffffffffffffffffffffffffffffff160217905550610c48806100616000396000f3fe608060405234801561001057600080fd5b50600436106100575760003560e01c80634719d51b1461005c578063562a87401461007a578063e3cda82314610096578063f216969c146100b4578063f851a440146100e6575b600080fd5b610064610104565b60405161007191906109dd565b60405180910390f35b610094600480360381019061008f919061078f565b61010e565b005b61009e61046e565b6040516100ab91906109dd565b60405180910390f35b6100ce60048036038101906100c9919061078f565b610478565b6040516100dd93929190610946565b60405180910390f35b6100ee610534565b6040516100fb919061092b565b60405180910390f35b6000600254905090565b600360009054906101000a900473ffffffffffffffffffffffffffffffffffffffff1673ffffffffffffffffffffffffffffffffffffffff163373ffffffffffffffffffffffffffffffffffffffff161461019e576040517f08c379a00000000000000000000000000000000000000000000000000000000081526004016101959061099d565b60405180910390fd5b60008151116101e2576040517f08c379a00000000000000000000000000000000000000000000000000000000081526004016101d9906109bd565b60405180910390fd5b6000816040516101f29190610914565b908152602001604051809103902060010160149054906101000a900460ff1615610251576040517f08c379a00000000000000000000000000000000000000000000000000000000081526004016102489061097d565b60405180910390fd5b60405180608001604052808281526020013373ffffffffffffffffffffffffffffffffffffffff1681526020016001151581526020014281525060008260405161029b9190610914565b908152602001604051809103902060008201518160000190805190602001906102c5929190610684565b5060208201518160010160006101000a81548173ffffffffffffffffffffffffffffffffffffffff021916908373ffffffffffffffffffffffffffffffffffffffff16021790555060408201518160010160146101000a81548160ff02191690831515021790555060608201518160020155905050600781511180156103cc5750610385816040518060400160405280600781526020017f687474703a2f2f0000000000000000000000000000000000000000000000000081525061055a565b806103cb57506103ca816040518060400160405280600881526020017f68747470733a2f2f00000000000000000000000000000000000000000000000081525061055a565b5b5b156103ee57600160008154809291906103e490610b3c565b9190505550610407565b6002600081548092919061040190610b3c565b91905055505b3373ffffffffffffffffffffffffffffffffffffffff168160405161042c9190610914565b60405180910390207fb59de8daf17eb675254df2dde8d80e7a9e9bc419049c05d6f6a8ba077b2a2ac64260405161046391906109dd565b60405180910390a350565b6000600154905090565b6000806000808460405161048c9190610914565b908152602001604051809103902060010160149054906101000a900460ff16156105215760016000856040516104c29190610914565b908152602001604051809103902060010160009054906101000a900473ffffffffffffffffffffffffffffffffffffffff166000866040516105049190610914565b90815260200160405180910390206002015492509250925061052d565b60008060009250925092505b9193909250565b600360009054906101000a900473ffffffffffffffffffffffffffffffffffffffff1681565b600080839050600083905080518251101561057a5760009250505061067e565b60005b8151811015610676578181815181106105bf577f4e487b7100000000000000000000000000000000000000000000000000000000600052603260045260246000fd5b602001015160f81c60f81b7effffffffffffffffffffffffffffffffffffffffffffffffffffffffffffff1916838281518110610625577f4e487b7100000000000000000000000000000000000000000000000000000000600052603260045260246000fd5b602001015160f81c60f81b7effffffffffffffffffffffffffffffffffffffffffffffffffffffffffffff191614610663576000935050505061067e565b808061066e90610b3c565b91505061057d565b506001925050505b92915050565b82805461069090610b0a565b90600052602060002090601f0160209004810192826106b257600085556106f9565b82601f106106cb57805160ff19168380011785556106f9565b828001600101855582156106f9579182015b828111156106f85782518255916020019190600101906106dd565b5b509050610706919061070a565b5090565b5b8082111561072357600081600090555060010161070b565b5090565b600061073a61073584610a29565b6109f8565b90508281526020810184848401111561075257600080fd5b61075d848285610ac8565b509392505050565b600082601f83011261077657600080fd5b8135610786848260208601610727565b91505092915050565b6000602082840312156107a157600080fd5b600082013567ffffffffffffffff8111156107bb57600080fd5b6107c784828501610765565b91505092915050565b6107d981610a80565b82525050565b6107e881610a92565b82525050565b60006107f982610a59565b6108038185610a75565b9350610813818560208601610ad7565b80840191505092915050565b600061082c601383610a64565b91507f4461746120616c726561647920657869737473000000000000000000000000006000830152602082019050919050565b600061086c602283610a64565b91507f4f6e6c792061646d696e2063616e20706572666f726d2074686973206163746960008301527f6f6e0000000000000000000000000000000000000000000000000000000000006020830152604082019050919050565b60006108d2601483610a64565b91507f446174612063616e6e6f7420626520656d7074790000000000000000000000006000830152602082019050919050565b61090e81610abe565b82525050565b600061092082846107ee565b915081905092915050565b600060208201905061094060008301846107d0565b92915050565b600060608201905061095b60008301866107df565b61096860208301856107d0565b6109756040830184610905565b949350505050565b600060208201905081810360008301526109968161081f565b9050919050565b600060208201905081810360008301526109b68161085f565b9050919050565b600060208201905081810360008301526109d6816108c5565b9050919050565b60006020820190506109f26000830184610905565b92915050565b6000604051905081810181811067ffffffffffffffff82111715610a1f57610a1e610be3565b5b8060405250919050565b600067ffffffffffffffff821115610a4457610a43610be3565b5b601f19601f8301169050602081019050919050565b600081519050919050565b600082825260208201905092915050565b600081905092915050565b6000610a8b82610a9e565b9050919050565b60008115159050919050565b600073ffffffffffffffffffffffffffffffffffffffff82169050919050565b6000819050919050565b82818337600083830152505050565b60005b83811015610af5578082015181840152602081019050610ada565b83811115610b04576000848401525b50505050565b60006002820490506001821680610b2257607f821691505b60208210811415610b3657610b35610bb4565b5b50919050565b6000610b4782610abe565b91507fffffffffffffffffffffffffffffffffffffffffffffffffffffffffffffffff821415610b7a57610b79610b85565b5b600182019050919050565b7f4e487b7100000000000000000000000000000000000000000000000000000000600052601160045260246000fd5b7f4e487b7100000000000000000000000000000000000000000000000000000000600052602260045260246000fd5b7f4e487b7100000000000000000000000000000000000000000000000000000000600052604160045260246000fdfea2646970667358221220cc819ecd9e0ed9f8f2244053220421e397cdc55e493232b44ff2c9f3d2bc1cfb64736f6c63430008000033",
  "immutableReferences": {},
  "source": "// SPDX-License-Identifier: MIT\r\npragma solidity ^0.8.0;\r\n\r\ncontract VerificationSmartContract {\r\n    struct Metadata {\r\n        string data; // Can be URL or IPFS hash\r\n        address addedBy;\r\n        bool exists; // To check existence\r\n        uint256 timestamp; // Timestamp when the data was added\r\n    }\r\n\r\n    mapping(string => Metadata) private metadataStore;\r\n    uint256 private urlCount;\r\n    uint256 private ipfsHashCount;\r\n    \r\n    address public admin;\r\n\r\n    modifier onlyAdmin() {\r\n        require(msg.sender == admin, \"Only admin can perform this action\");\r\n        _;\r\n    }\r\n\r\n    event MetadataAdded(string indexed data, address indexed addedBy, uint256 timestamp);\r\n\r\n    constructor() {\r\n        admin = msg.sender;\r\n    }\r\n\r\n    function addMetadata(string memory data) public onlyAdmin {\r\n        require(bytes(data).length > 0, \"Data cannot be empty\");\r\n        require(!metadataStore[data].exists, \"Data already exists\");\r\n\r\n        metadataStore[data] = Metadata(data, msg.sender, true, block.timestamp);\r\n\r\n        // Check if the data is a URL or an IPFS hash\r\n        if (bytes(data).length > 7 && (compareStrings(data, \"http://\") || compareStrings(data, \"https://\"))) {\r\n            urlCount++;\r\n        } else {\r\n            ipfsHashCount++;\r\n        }\r\n\r\n        emit MetadataAdded(data, msg.sender, block.timestamp);\r\n    }\r\n\r\n    function verifyMetadata(string memory data) public view returns (bool, address, uint256) {\r\n        if (metadataStore[data].exists) {\r\n            return (true, metadataStore[data].addedBy, metadataStore[data].timestamp);\r\n        } else {\r\n            return (false, address(0), 0);\r\n        }\r\n    }\r\n\r\n    function getURLCount() public view returns (uint256) {\r\n        return urlCount;\r\n    }\r\n\r\n    function getIPFSHashCount() public view returns (uint256) {\r\n        return ipfsHashCount;\r\n    }\r\n\r\n    // Helper function to compare string prefixes\r\n    function compareStrings(string memory a, string memory b) internal pure returns (bool) {\r\n        bytes memory aBytes = bytes(a);\r\n        bytes memory bBytes = bytes(b);\r\n        if (aBytes.length < bBytes.length) {\r\n            return false;\r\n        }\r\n        for (uint256 i = 0; i < bBytes.length; i++) {\r\n            if (aBytes[i] != bBytes[i]) {\r\n                return false;\r\n            }\r\n        }\r\n        return true;\r\n    }\r\n}\r\n",
  "sourcePath": "C:\\Users\\ROG STRIX\\OneDrive\\Desktop\\Salman\\Blockchain\\TrueSource - DApp2\\Solution\\true-source\\contracts\\VerificationSmartContract.sol",
  "compiler": {
    "name": "solc",
    "version": "0.8.0+commit.c7dfd78e.Emscripten.clang"
  },
  "schemaVersion": "3.4.16",
  "updatedAt": "2024-05-22T06:18:05.641Z",
  "networkType": "ethereum",
  "devdoc": {
    "kind": "dev",
    "methods": {},
    "version": 1
  },
  "userdoc": {
    "kind": "user",
    "methods": {},
    "version": 1
  }
}